:107800007BC00000AEC0000092C0000090C000002D
:107810008EC000008CC000008AC0000088C000003C
:1078200086C0000084C0000082C0000080C000004C
:107830007EC000007CC000007AC0000078C000005C
:1078400076C0000074C0000072C0000070C000006C
:107850006EC000006CC000006AC0000068C000007C
:1078600066C0000064C0000062C0000060C000008C
:107870005EC000005CC000005AC000000600FF09A6
:1078800001A101150026FF00750885019506090074
:10789000B20201850295830900B20201C0090222E9
:1078A000000101008032090400000103000000090A
:1078B0002101010001222100070581030800C812EF
:1078C00001100100000008C016DF050001010200E0
:1078D00001100348004900440042006F006F00742B
:1078E0000012036F0062006400650076002E0061E4
:1078F000007400040309040011241FBECFEFD8E078
:10790000DEBFCDBF11E0A0E0B1E0E8EDFEE702C0D0
:1079100005900D92AA30B107D9F711E0AAE0B1E0C5
:1079200001C01D92AB33B107E1F72AD1D3C268CFB2
:10793000A82FB92F80E090E041E050EA609530E058
:1079400009C02D9182279795879510F08427952758
:10795000305EC8F36F5FA8F30895EADF8D939D93BF
:107960000895CF93CFB7CF93DF93C3954B9BE9F7A0
:107970004B9B11C04B9B0FC04B9B0DC04B9B0BC037
:107980004B9B09C04B9B07C04B9B05C04B9B03C047
:107990004B9B01C083C06F93C0911E01DD27CB5D5F
:1079A000DE4F2F9320E400C065E04B9B03C02F9176
:1079B0006F91DECF0F931F934F9345E55F9355E58E
:1079C0003F933BE014E009B10C702EC06A95C9F0FA
:1079D0003150D8F109B10C7001130BC008942795F0
:1079E000299320E4555500F46A9569F701E069B1DF
:1079F0000BC0102F66E02695299320E4555518F307
:107A0000E2CF0FEF69B10000162F455500F040405E
:107A100066E01C700030E2F221F0000009B10C7049
:107A200003C009B10C70A9F0011309C0089427958F
:107A300068F200C06A95A9F700E069B1E5CF102FA0
:107A400066E0269528F20000ECCF11E01CBB002771
:107A500019C03B503195C31BD04011E01CBB0881BD
:107A6000033C09F10B34F9F020911C011981110F2D
:107A70001213EDCF4A81441F093651F10D3211F036
:107A8000013E29F7009323013F915F914F911F9190
:107A90000F912F916F91CCB3C0FD67CFDF91CF9144
:107AA000CFBFCF91189520912301222369F3109124
:107AB0002101112339F534303AF13093210120931B
:107AC0001D0110911E013BE0311B30931E011CC0B3
:107AD000009121010130B4F40AE54F7099F430911E
:107AE000000134FD12C000930001C1E1D1E011C0DA
:107AF000052710E000C00BB919C0052710E0221FB0
:107B000000C01DC04AE502C032ED432FC4E1D0E001
:107B100032E01AB11C605B9A0BB11AB95CE020E844
:107B200069E420FF05270BB92795179500C00000D1
:107B30001C3FF0F66695A8F7A1F720FF05270BB9C3
:107B40002795179500001C3FC0F629913A9541F7FB
:107B5000037F10912201110F0BB9C651D04011F0D3
:107B600010931C0111E01CBB08601AB1137F402F59
:107B7000437F55E05A95F1F70BB91AB94BB984CF49
:107B800072E47A95F1F700C04E9B10C0F89481E141
:107B900080935700E8951DBA1092690081E085BF77
:107BA00015BEE0910F01F0911001099581E085BFAC
:107BB00082E085BF80916900836080936900E89AC4
:107BC000539A80E0A895E7E8F3E13197F1F700C018
:107BD00000008150B9F75398789400E010E0A89520
:107BE00030912101432F435047FD1BC180911E015D
:107BF000ACE0B0E0A81BB109AB5DBE4F80911D01A8
:107C00008D3209F0BAC0483009F009C183EC809385
:107C100011018AE58093000110920B019C91292F9C
:107C2000207611968C9111972223E1F0893079F416
:107C300012968C911297823031F410920C0197FDBC
:107C400089C02FEF89C081E080930A0141C1813052
:107C500009F03EC182E091E09093200180931F01E2
:107C600027E07EC012969C91129710921A01811102
:107C700006C010921B018AE191E022E066C08530C7
:107C800019F49093220157C0863009F04BC0139627
:107C90008C911397813019F48FEB98E71AC08230DA
:107CA00041F48DE998E79093200180931F0122E22F
:107CB00035C08330F1F4911108C083EF98E79093B9
:107CC000200180931F0124E029C0913041F481EE0E
:107CD00098E79093200180931F0122E11FC092300A
:107CE000E1F481ED98E79093200180931F0120E15A
:107CF00015C0813241F48FEA98E790932001809378
:107D00001F0129E00BC0823241F48CE798E7909381
:107D1000200180931F0121E201C020E080E48093D4
:107D20000B011EC0883059F0893019F4909324015A
:107D300002C08A3039F08AE191E020E006C084E296
:107D400091E002C08AE191E021E0909320018093CC
:107D50001F0106C016962C9180E880930B010AC083
:107D600017968C911797811105C016968C918217E2
:107D700008F4282F2093010152C080910B0187FF46
:107D80004EC080910D0190910E0120910C012111A6
:107D900009C011968C91119712969C911297149686
:107DA000432F4750240F20930C01522F5078ED01A0
:107DB000282F2F7799F0F8942991399161E0FC01EF
:107DC000090160935700E895112478949C012E5F77
:107DD0003F4FC901622F6F7789F00BC0F89423E001
:107DE000FC0120935700E895789407B600FCFDCF7E
:107DF000E2CF642F6A0F6C13DBCF0AC0F89465E002
:107E000060935700E895789407B600FCFDCFF1CF5A
:107E100030930E0120930D01511110920101109227
:107E200021018091000184FF3DC0809101018F3FBD
:107E3000C9F1C82F893008F0C8E08C1B809301017C
:107E40008091110198E8892780931101CC23F1F0EA
:107E5000E0911F01F091200180910B01A2E1B1E0BE
:107E600086FF09C084918D93319682E191E08C0F59
:107E70008A13F8CF07C081918D9382E191E08C0F36
:107E80008A13F9CFF0932001E0931F016C2F82E158
:107E900091E063DDCC5FCC3019F08FEF809301016E
:107EA000C093000184E199B19C7031F48150D9F7FD
:107EB0001092220110921C0180910A01882329F05E
:107EC000115019F4015009F461CE4E9B88CE5ECE5C
:087ED00020E046CFF894FFCF3B
:0A7ED8005AFF018000008000000046
:040000030000780081
:00000001FF
